{
  "_format": "hh-sol-artifact-1",
  "contractName": "Wall",
  "sourceName": "contracts/Wall.sol",
  "abi": [
    {
      "inputs": [],
      "stateMutability": "payable",
      "type": "constructor"
    },
    {
      "anonymous": false,
      "inputs": [
        {
          "indexed": true,
          "internalType": "address",
          "name": "from",
          "type": "address"
        },
        {
          "indexed": false,
          "internalType": "uint256",
          "name": "timestamp",
          "type": "uint256"
        },
        {
          "indexed": false,
          "internalType": "string",
          "name": "message",
          "type": "string"
        },
        {
          "indexed": false,
          "internalType": "bool",
          "name": "approved",
          "type": "bool"
        },
        {
          "indexed": false,
          "internalType": "uint256",
          "name": "id",
          "type": "uint256"
        }
      ],
      "name": "ApprovedMessage",
      "type": "event"
    },
    {
      "anonymous": false,
      "inputs": [
        {
          "indexed": true,
          "internalType": "address",
          "name": "from",
          "type": "address"
        },
        {
          "indexed": false,
          "internalType": "uint256",
          "name": "timestamp",
          "type": "uint256"
        },
        {
          "indexed": false,
          "internalType": "string",
          "name": "message",
          "type": "string"
        },
        {
          "indexed": false,
          "internalType": "bool",
          "name": "approved",
          "type": "bool"
        },
        {
          "indexed": false,
          "internalType": "uint256",
          "name": "id",
          "type": "uint256"
        }
      ],
      "name": "NewMessage",
      "type": "event"
    },
    {
      "anonymous": false,
      "inputs": [
        {
          "indexed": true,
          "internalType": "address",
          "name": "previousOwner",
          "type": "address"
        },
        {
          "indexed": true,
          "internalType": "address",
          "name": "newOwner",
          "type": "address"
        }
      ],
      "name": "OwnershipTransferred",
      "type": "event"
    },
    {
      "inputs": [
        {
          "internalType": "uint256",
          "name": "_index",
          "type": "uint256"
        }
      ],
      "name": "approveMessage",
      "outputs": [],
      "stateMutability": "nonpayable",
      "type": "function"
    },
    {
      "inputs": [],
      "name": "getAllMessages",
      "outputs": [
        {
          "components": [
            {
              "internalType": "address",
              "name": "from",
              "type": "address"
            },
            {
              "internalType": "uint256",
              "name": "timestamp",
              "type": "uint256"
            },
            {
              "internalType": "string",
              "name": "message",
              "type": "string"
            },
            {
              "internalType": "bool",
              "name": "approved",
              "type": "bool"
            },
            {
              "internalType": "uint256",
              "name": "id",
              "type": "uint256"
            }
          ],
          "internalType": "struct Wall.Message[]",
          "name": "",
          "type": "tuple[]"
        }
      ],
      "stateMutability": "view",
      "type": "function"
    },
    {
      "inputs": [
        {
          "internalType": "address",
          "name": "",
          "type": "address"
        }
      ],
      "name": "lastMessageIndex",
      "outputs": [
        {
          "internalType": "uint256",
          "name": "",
          "type": "uint256"
        }
      ],
      "stateMutability": "view",
      "type": "function"
    },
    {
      "inputs": [],
      "name": "owner",
      "outputs": [
        {
          "internalType": "address",
          "name": "",
          "type": "address"
        }
      ],
      "stateMutability": "view",
      "type": "function"
    },
    {
      "inputs": [
        {
          "internalType": "string",
          "name": "_message",
          "type": "string"
        }
      ],
      "name": "post",
      "outputs": [],
      "stateMutability": "payable",
      "type": "function"
    },
    {
      "inputs": [],
      "name": "renounceOwnership",
      "outputs": [],
      "stateMutability": "nonpayable",
      "type": "function"
    },
    {
      "inputs": [
        {
          "internalType": "address",
          "name": "newOwner",
          "type": "address"
        }
      ],
      "name": "transferOwnership",
      "outputs": [],
      "stateMutability": "nonpayable",
      "type": "function"
    }
  ],
  "bytecode": "0x6080604052662386f26fc1000060015561002b61002061003060201b60201c565b61003860201b60201c565b6100fc565b600033905090565b60008060009054906101000a900473ffffffffffffffffffffffffffffffffffffffff169050816000806101000a81548173ffffffffffffffffffffffffffffffffffffffff021916908373ffffffffffffffffffffffffffffffffffffffff1602179055508173ffffffffffffffffffffffffffffffffffffffff168173ffffffffffffffffffffffffffffffffffffffff167f8be0079c531659141344cd1fd0a4f28419497f9722a3daafe3b4186f6b6457e060405160405180910390a35050565b6115948061010b6000396000f3fe6080604052600436106100705760003560e01c80638ee93cf31161004e5780638ee93cf3146100e2578063baabdef4146100fe578063d0c035921461013b578063f2fde38b1461016457610070565b806353f5e38014610075578063715018a6146100a05780638da5cb5b146100b7575b600080fd5b34801561008157600080fd5b5061008a61018d565b604051610097919061109a565b60405180910390f35b3480156100ac57600080fd5b506100b5610303565b005b3480156100c357600080fd5b506100cc61038b565b6040516100d9919061107f565b60405180910390f35b6100fc60048036038101906100f79190610d61565b6103b4565b005b34801561010a57600080fd5b5061012560048036038101906101209190610d38565b610683565b604051610132919061114c565b60405180910390f35b34801561014757600080fd5b50610162600480360381019061015d9190610da2565b61069b565b005b34801561017057600080fd5b5061018b60048036038101906101869190610d38565b61097a565b005b60606002805480602002602001604051908101604052809291908181526020016000905b828210156102fa57838290600052602060002090600502016040518060a00160405290816000820160009054906101000a900473ffffffffffffffffffffffffffffffffffffffff1673ffffffffffffffffffffffffffffffffffffffff1673ffffffffffffffffffffffffffffffffffffffff168152602001600182015481526020016002820180546102449061138e565b80601f01602080910402602001604051908101604052809291908181526020018280546102709061138e565b80156102bd5780601f10610292576101008083540402835291602001916102bd565b820191906000526020600020905b8154815290600101906020018083116102a057829003601f168201915b505050505081526020016003820160009054906101000a900460ff16151515158152602001600482015481525050815260200190600101906101b1565b50505050905090565b61030b610a72565b73ffffffffffffffffffffffffffffffffffffffff1661032961038b565b73ffffffffffffffffffffffffffffffffffffffff161461037f576040517f08c379a00000000000000000000000000000000000000000000000000000000081526004016103769061110c565b60405180910390fd5b6103896000610a7a565b565b60008060009054906101000a900473ffffffffffffffffffffffffffffffffffffffff16905090565b6103bc61038b565b73ffffffffffffffffffffffffffffffffffffffff163373ffffffffffffffffffffffffffffffffffffffff1614806103f6575060015434145b610435576040517f08c379a000000000000000000000000000000000000000000000000000000000815260040161042c9061112c565b60405180910390fd5b60008042905061044361038b565b73ffffffffffffffffffffffffffffffffffffffff163373ffffffffffffffffffffffffffffffffffffffff16141561047b57600191505b60006040518060a001604052803373ffffffffffffffffffffffffffffffffffffffff16815260200183815260200185815260200184151581526020016002805490508152509050600281908060018154018082558091505060019003906000526020600020906005020160009091909190915060008201518160000160006101000a81548173ffffffffffffffffffffffffffffffffffffffff021916908373ffffffffffffffffffffffffffffffffffffffff16021790555060208201518160010155604082015181600201908051906020019061055c929190610c03565b5060608201518160030160006101000a81548160ff02191690831515021790555060808201518160040155505061059161038b565b73ffffffffffffffffffffffffffffffffffffffff163373ffffffffffffffffffffffffffffffffffffffff16146106185760006105cd61038b565b90508073ffffffffffffffffffffffffffffffffffffffff166108fc349081150290604051600060405180830381858888f19350505050158015610615573d6000803e3d6000fd5b50505b3373ffffffffffffffffffffffffffffffffffffffff167f81bfa0accb53b6cf19008ab59630ee1c469cba5bf39a62a4837cfb20080d6e04838686600160028054905061066591906112d0565b6040516106759493929190611167565b60405180910390a250505050565b60036020528060005260406000206000915090505481565b6106a3610a72565b73ffffffffffffffffffffffffffffffffffffffff166106c161038b565b73ffffffffffffffffffffffffffffffffffffffff1614610717576040517f08c379a000000000000000000000000000000000000000000000000000000000815260040161070e9061110c565b60405180910390fd5b6107566040518060400160405280601181526020017f617070726f76696e67206d65737361676500000000000000000000000000000081525082610b3e565b600280549050811061076757600080fd5b6001600282815481106107a3577f4e487b7100000000000000000000000000000000000000000000000000000000600052603260045260246000fd5b906000526020600020906005020160030160006101000a81548160ff02191690831515021790555060028181548110610805577f4e487b7100000000000000000000000000000000000000000000000000000000600052603260045260246000fd5b906000526020600020906005020160000160009054906101000a900473ffffffffffffffffffffffffffffffffffffffff1673ffffffffffffffffffffffffffffffffffffffff167fe754d4c8415e550f9d28a8ffa9cc310996c35ddf47dfd90564644b82b54111b7600283815481106108a8577f4e487b7100000000000000000000000000000000000000000000000000000000600052603260045260246000fd5b906000526020600020906005020160010154600284815481106108f4577f4e487b7100000000000000000000000000000000000000000000000000000000600052603260045260246000fd5b90600052602060002090600502016002016002858154811061093f577f4e487b7100000000000000000000000000000000000000000000000000000000600052603260045260246000fd5b906000526020600020906005020160030160009054906101000a900460ff168560405161096f94939291906111b3565b60405180910390a250565b610982610a72565b73ffffffffffffffffffffffffffffffffffffffff166109a061038b565b73ffffffffffffffffffffffffffffffffffffffff16146109f6576040517f08c379a00000000000000000000000000000000000000000000000000000000081526004016109ed9061110c565b60405180910390fd5b600073ffffffffffffffffffffffffffffffffffffffff168173ffffffffffffffffffffffffffffffffffffffff161415610a66576040517f08c379a0000000000000000000000000000000000000000000000000000000008152600401610a5d906110ec565b60405180910390fd5b610a6f81610a7a565b50565b600033905090565b60008060009054906101000a900473ffffffffffffffffffffffffffffffffffffffff169050816000806101000a81548173ffffffffffffffffffffffffffffffffffffffff021916908373ffffffffffffffffffffffffffffffffffffffff1602179055508173ffffffffffffffffffffffffffffffffffffffff168173ffffffffffffffffffffffffffffffffffffffff167f8be0079c531659141344cd1fd0a4f28419497f9722a3daafe3b4186f6b6457e060405160405180910390a35050565b610bd68282604051602401610b549291906110bc565b6040516020818303038152906040527f9710a9d0000000000000000000000000000000000000000000000000000000007bffffffffffffffffffffffffffffffffffffffffffffffffffffffff19166020820180517bffffffffffffffffffffffffffffffffffffffffffffffffffffffff8381831617835250505050610bda565b5050565b60008151905060006a636f6e736f6c652e6c6f679050602083016000808483855afa5050505050565b828054610c0f9061138e565b90600052602060002090601f016020900481019282610c315760008555610c78565b82601f10610c4a57805160ff1916838001178555610c78565b82800160010185558215610c78579182015b82811115610c77578251825591602001919060010190610c5c565b5b509050610c859190610c89565b5090565b5b80821115610ca2576000816000905550600101610c8a565b5090565b6000610cb9610cb484611224565b6111ff565b905082815260208101848484011115610cd157600080fd5b610cdc84828561134c565b509392505050565b600081359050610cf381611530565b92915050565b600082601f830112610d0a57600080fd5b8135610d1a848260208601610ca6565b91505092915050565b600081359050610d3281611547565b92915050565b600060208284031215610d4a57600080fd5b6000610d5884828501610ce4565b91505092915050565b600060208284031215610d7357600080fd5b600082013567ffffffffffffffff811115610d8d57600080fd5b610d9984828501610cf9565b91505092915050565b600060208284031215610db457600080fd5b6000610dc284828501610d23565b91505092915050565b6000610dd78383610feb565b905092915050565b610de881611304565b82525050565b610df781611304565b82525050565b6000610e088261127a565b610e12818561129d565b935083602082028501610e2485611255565b8060005b85811015610e605784840389528151610e418582610dcb565b9450610e4c83611290565b925060208a01995050600181019050610e28565b50829750879550505050505092915050565b610e7b81611316565b82525050565b610e8a81611316565b82525050565b6000610e9b82611285565b610ea581856112ae565b9350610eb581856020860161135b565b610ebe8161147e565b840191505092915050565b6000610ed482611285565b610ede81856112bf565b9350610eee81856020860161135b565b610ef78161147e565b840191505092915050565b60008154610f0f8161138e565b610f1981866112bf565b94506001821660008114610f345760018114610f4657610f79565b60ff1983168652602086019350610f79565b610f4f85611265565b60005b83811015610f7157815481890152600182019150602081019050610f52565b808801955050505b50505092915050565b6000610f8f6026836112bf565b9150610f9a8261148f565b604082019050919050565b6000610fb26020836112bf565b9150610fbd826114de565b602082019050919050565b6000610fd5601e836112bf565b9150610fe082611507565b602082019050919050565b600060a0830160008301516110036000860182610ddf565b5060208301516110166020860182611061565b506040830151848203604086015261102e8282610e90565b91505060608301516110436060860182610e72565b5060808301516110566080860182611061565b508091505092915050565b61106a81611342565b82525050565b61107981611342565b82525050565b60006020820190506110946000830184610dee565b92915050565b600060208201905081810360008301526110b48184610dfd565b905092915050565b600060408201905081810360008301526110d68185610ec9565b90506110e56020830184611070565b9392505050565b6000602082019050818103600083015261110581610f82565b9050919050565b6000602082019050818103600083015261112581610fa5565b9050919050565b6000602082019050818103600083015261114581610fc8565b9050919050565b60006020820190506111616000830184611070565b92915050565b600060808201905061117c6000830187611070565b818103602083015261118e8186610ec9565b905061119d6040830185610e81565b6111aa6060830184611070565b95945050505050565b60006080820190506111c86000830187611070565b81810360208301526111da8186610f02565b90506111e96040830185610e81565b6111f66060830184611070565b95945050505050565b600061120961121a565b905061121582826113c0565b919050565b6000604051905090565b600067ffffffffffffffff82111561123f5761123e61144f565b5b6112488261147e565b9050602081019050919050565b6000819050602082019050919050565b60008190508160005260206000209050919050565b600081519050919050565b600081519050919050565b6000602082019050919050565b600082825260208201905092915050565b600082825260208201905092915050565b600082825260208201905092915050565b60006112db82611342565b91506112e683611342565b9250828210156112f9576112f86113f1565b5b828203905092915050565b600061130f82611322565b9050919050565b60008115159050919050565b600073ffffffffffffffffffffffffffffffffffffffff82169050919050565b6000819050919050565b82818337600083830152505050565b60005b8381101561137957808201518184015260208101905061135e565b83811115611388576000848401525b50505050565b600060028204905060018216806113a657607f821691505b602082108114156113ba576113b9611420565b5b50919050565b6113c98261147e565b810181811067ffffffffffffffff821117156113e8576113e761144f565b5b80604052505050565b7f4e487b7100000000000000000000000000000000000000000000000000000000600052601160045260246000fd5b7f4e487b7100000000000000000000000000000000000000000000000000000000600052602260045260246000fd5b7f4e487b7100000000000000000000000000000000000000000000000000000000600052604160045260246000fd5b6000601f19601f8301169050919050565b7f4f776e61626c653a206e6577206f776e657220697320746865207a65726f206160008201527f6464726573730000000000000000000000000000000000000000000000000000602082015250565b7f4f776e61626c653a2063616c6c6572206973206e6f7420746865206f776e6572600082015250565b7f596f75206d75737420706179202e303120657468657220746f20706f73740000600082015250565b61153981611304565b811461154457600080fd5b50565b61155081611342565b811461155b57600080fd5b5056fea264697066735822122055b5e5fe669a4445698017d454a5a8929ede3dbc69ef616aea9392270bd6af8964736f6c63430008040033",
  "linkReferences": {},
  "deployedLinkReferences": {}
}