{
  "_format": "hh-sol-artifact-1",
  "contractName": "Wall",
  "sourceName": "contracts/Wall.sol",
  "abi": [
    {
      "inputs": [],
      "stateMutability": "payable",
      "type": "constructor"
    },
    {
      "anonymous": false,
      "inputs": [
        {
          "indexed": true,
          "internalType": "address",
          "name": "from",
          "type": "address"
        },
        {
          "indexed": false,
          "internalType": "uint256",
          "name": "timestamp",
          "type": "uint256"
        },
        {
          "indexed": false,
          "internalType": "string",
          "name": "message",
          "type": "string"
        }
      ],
      "name": "NewMessage",
      "type": "event"
    },
    {
      "anonymous": false,
      "inputs": [
        {
          "indexed": true,
          "internalType": "address",
          "name": "previousOwner",
          "type": "address"
        },
        {
          "indexed": true,
          "internalType": "address",
          "name": "newOwner",
          "type": "address"
        }
      ],
      "name": "OwnershipTransferred",
      "type": "event"
    },
    {
      "inputs": [],
      "name": "getAllMessages",
      "outputs": [
        {
          "components": [
            {
              "internalType": "address",
              "name": "from",
              "type": "address"
            },
            {
              "internalType": "uint256",
              "name": "timestamp",
              "type": "uint256"
            },
            {
              "internalType": "string",
              "name": "message",
              "type": "string"
            }
          ],
          "internalType": "struct Wall.Message[]",
          "name": "",
          "type": "tuple[]"
        }
      ],
      "stateMutability": "view",
      "type": "function"
    },
    {
      "inputs": [
        {
          "internalType": "uint256",
          "name": "_index",
          "type": "uint256"
        }
      ],
      "name": "getMessage",
      "outputs": [
        {
          "components": [
            {
              "internalType": "address",
              "name": "from",
              "type": "address"
            },
            {
              "internalType": "uint256",
              "name": "timestamp",
              "type": "uint256"
            },
            {
              "internalType": "string",
              "name": "message",
              "type": "string"
            }
          ],
          "internalType": "struct Wall.Message",
          "name": "",
          "type": "tuple"
        }
      ],
      "stateMutability": "view",
      "type": "function"
    },
    {
      "inputs": [
        {
          "internalType": "address",
          "name": "",
          "type": "address"
        }
      ],
      "name": "lastMessageIndex",
      "outputs": [
        {
          "internalType": "uint256",
          "name": "",
          "type": "uint256"
        }
      ],
      "stateMutability": "view",
      "type": "function"
    },
    {
      "inputs": [],
      "name": "owner",
      "outputs": [
        {
          "internalType": "address",
          "name": "",
          "type": "address"
        }
      ],
      "stateMutability": "view",
      "type": "function"
    },
    {
      "inputs": [
        {
          "internalType": "string",
          "name": "_message",
          "type": "string"
        }
      ],
      "name": "post",
      "outputs": [],
      "stateMutability": "payable",
      "type": "function"
    },
    {
      "inputs": [],
      "name": "renounceOwnership",
      "outputs": [],
      "stateMutability": "nonpayable",
      "type": "function"
    },
    {
      "inputs": [
        {
          "internalType": "address",
          "name": "newOwner",
          "type": "address"
        }
      ],
      "name": "transferOwnership",
      "outputs": [],
      "stateMutability": "nonpayable",
      "type": "function"
    }
  ],
  "bytecode": "0x6080604052662386f26fc1000060015561002b61002061003060201b60201c565b61003860201b60201c565b6100fc565b600033905090565b60008060009054906101000a900473ffffffffffffffffffffffffffffffffffffffff169050816000806101000a81548173ffffffffffffffffffffffffffffffffffffffff021916908373ffffffffffffffffffffffffffffffffffffffff1602179055508173ffffffffffffffffffffffffffffffffffffffff168173ffffffffffffffffffffffffffffffffffffffff167f8be0079c531659141344cd1fd0a4f28419497f9722a3daafe3b4186f6b6457e060405160405180910390a35050565b6111688061010b6000396000f3fe6080604052600436106100705760003560e01c80638da5cb5b1161004e5780638da5cb5b146100f45780638ee93cf31461011f578063baabdef41461013b578063f2fde38b1461017857610070565b806353f5e38014610075578063715018a6146100a057806386f79edb146100b7575b600080fd5b34801561008157600080fd5b5061008a6101a1565b6040516100979190610d68565b60405180910390f35b3480156100ac57600080fd5b506100b56102f2565b005b3480156100c357600080fd5b506100de60048036038101906100d99190610ae4565b61037a565b6040516100eb9190610dea565b60405180910390f35b34801561010057600080fd5b506101096104ce565b6040516101169190610d4d565b60405180910390f35b61013960048036038101906101349190610aa3565b6104f7565b005b34801561014757600080fd5b50610162600480360381019061015d9190610a7a565b610732565b60405161016f9190610e0c565b60405180910390f35b34801561018457600080fd5b5061019f600480360381019061019a9190610a7a565b61074a565b005b60606002805480602002602001604051908101604052809291908181526020016000905b828210156102e957838290600052602060002090600302016040518060600160405290816000820160009054906101000a900473ffffffffffffffffffffffffffffffffffffffff1673ffffffffffffffffffffffffffffffffffffffff1673ffffffffffffffffffffffffffffffffffffffff1681526020016001820154815260200160028201805461025890610f91565b80601f016020809104026020016040519081016040528092919081815260200182805461028490610f91565b80156102d15780601f106102a6576101008083540402835291602001916102d1565b820191906000526020600020905b8154815290600101906020018083116102b457829003601f168201915b505050505081525050815260200190600101906101c5565b50505050905090565b6102fa610842565b73ffffffffffffffffffffffffffffffffffffffff166103186104ce565b73ffffffffffffffffffffffffffffffffffffffff161461036e576040517f08c379a000000000000000000000000000000000000000000000000000000000815260040161036590610daa565b60405180910390fd5b610378600061084a565b565b61038261090e565b600282815481106103bc577f4e487b7100000000000000000000000000000000000000000000000000000000600052603260045260246000fd5b90600052602060002090600302016040518060600160405290816000820160009054906101000a900473ffffffffffffffffffffffffffffffffffffffff1673ffffffffffffffffffffffffffffffffffffffff1673ffffffffffffffffffffffffffffffffffffffff1681526020016001820154815260200160028201805461044590610f91565b80601f016020809104026020016040519081016040528092919081815260200182805461047190610f91565b80156104be5780601f10610493576101008083540402835291602001916104be565b820191906000526020600020905b8154815290600101906020018083116104a157829003601f168201915b5050505050815250509050919050565b60008060009054906101000a900473ffffffffffffffffffffffffffffffffffffffff16905090565b6104ff6104ce565b73ffffffffffffffffffffffffffffffffffffffff163373ffffffffffffffffffffffffffffffffffffffff161480610539575060015434145b610578576040517f08c379a000000000000000000000000000000000000000000000000000000000815260040161056f90610dca565b60405180910390fd5b6000429050600060405180606001604052803373ffffffffffffffffffffffffffffffffffffffff168152602001838152602001848152509050600281908060018154018082558091505060019003906000526020600020906003020160009091909190915060008201518160000160006101000a81548173ffffffffffffffffffffffffffffffffffffffff021916908373ffffffffffffffffffffffffffffffffffffffff16021790555060208201518160010155604082015181600201908051906020019061064b929190610945565b5050503373ffffffffffffffffffffffffffffffffffffffff167f0ff94fec3112de81726d79117e091c7c9d47da8a38c73e8cec7ee350a61898a68385604051610696929190610e27565b60405180910390a26106a66104ce565b73ffffffffffffffffffffffffffffffffffffffff163373ffffffffffffffffffffffffffffffffffffffff161461072d5760006106e26104ce565b90508073ffffffffffffffffffffffffffffffffffffffff166108fc349081150290604051600060405180830381858888f1935050505015801561072a573d6000803e3d6000fd5b50505b505050565b60036020528060005260406000206000915090505481565b610752610842565b73ffffffffffffffffffffffffffffffffffffffff166107706104ce565b73ffffffffffffffffffffffffffffffffffffffff16146107c6576040517f08c379a00000000000000000000000000000000000000000000000000000000081526004016107bd90610daa565b60405180910390fd5b600073ffffffffffffffffffffffffffffffffffffffff168173ffffffffffffffffffffffffffffffffffffffff161415610836576040517f08c379a000000000000000000000000000000000000000000000000000000000815260040161082d90610d8a565b60405180910390fd5b61083f8161084a565b50565b600033905090565b60008060009054906101000a900473ffffffffffffffffffffffffffffffffffffffff169050816000806101000a81548173ffffffffffffffffffffffffffffffffffffffff021916908373ffffffffffffffffffffffffffffffffffffffff1602179055508173ffffffffffffffffffffffffffffffffffffffff168173ffffffffffffffffffffffffffffffffffffffff167f8be0079c531659141344cd1fd0a4f28419497f9722a3daafe3b4186f6b6457e060405160405180910390a35050565b6040518060600160405280600073ffffffffffffffffffffffffffffffffffffffff16815260200160008152602001606081525090565b82805461095190610f91565b90600052602060002090601f01602090048101928261097357600085556109ba565b82601f1061098c57805160ff19168380011785556109ba565b828001600101855582156109ba579182015b828111156109b957825182559160200191906001019061099e565b5b5090506109c791906109cb565b5090565b5b808211156109e45760008160009055506001016109cc565b5090565b60006109fb6109f684610e7c565b610e57565b905082815260208101848484011115610a1357600080fd5b610a1e848285610f4f565b509392505050565b600081359050610a3581611104565b92915050565b600082601f830112610a4c57600080fd5b8135610a5c8482602086016109e8565b91505092915050565b600081359050610a748161111b565b92915050565b600060208284031215610a8c57600080fd5b6000610a9a84828501610a26565b91505092915050565b600060208284031215610ab557600080fd5b600082013567ffffffffffffffff811115610acf57600080fd5b610adb84828501610a3b565b91505092915050565b600060208284031215610af657600080fd5b6000610b0484828501610a65565b91505092915050565b6000610b198383610c8f565b905092915050565b610b2a81610f13565b82525050565b610b3981610f13565b82525050565b6000610b4a82610ebd565b610b548185610ee0565b935083602082028501610b6685610ead565b8060005b85811015610ba25784840389528151610b838582610b0d565b9450610b8e83610ed3565b925060208a01995050600181019050610b6a565b50829750879550505050505092915050565b6000610bbf82610ec8565b610bc98185610ef1565b9350610bd9818560208601610f5e565b610be281611052565b840191505092915050565b6000610bf882610ec8565b610c028185610f02565b9350610c12818560208601610f5e565b610c1b81611052565b840191505092915050565b6000610c33602683610f02565b9150610c3e82611063565b604082019050919050565b6000610c56602083610f02565b9150610c61826110b2565b602082019050919050565b6000610c79601e83610f02565b9150610c84826110db565b602082019050919050565b6000606083016000830151610ca76000860182610b21565b506020830151610cba6020860182610d2f565b5060408301518482036040860152610cd28282610bb4565b9150508091505092915050565b6000606083016000830151610cf76000860182610b21565b506020830151610d0a6020860182610d2f565b5060408301518482036040860152610d228282610bb4565b9150508091505092915050565b610d3881610f45565b82525050565b610d4781610f45565b82525050565b6000602082019050610d626000830184610b30565b92915050565b60006020820190508181036000830152610d828184610b3f565b905092915050565b60006020820190508181036000830152610da381610c26565b9050919050565b60006020820190508181036000830152610dc381610c49565b9050919050565b60006020820190508181036000830152610de381610c6c565b9050919050565b60006020820190508181036000830152610e048184610cdf565b905092915050565b6000602082019050610e216000830184610d3e565b92915050565b6000604082019050610e3c6000830185610d3e565b8181036020830152610e4e8184610bed565b90509392505050565b6000610e61610e72565b9050610e6d8282610fc3565b919050565b6000604051905090565b600067ffffffffffffffff821115610e9757610e96611023565b5b610ea082611052565b9050602081019050919050565b6000819050602082019050919050565b600081519050919050565b600081519050919050565b6000602082019050919050565b600082825260208201905092915050565b600082825260208201905092915050565b600082825260208201905092915050565b6000610f1e82610f25565b9050919050565b600073ffffffffffffffffffffffffffffffffffffffff82169050919050565b6000819050919050565b82818337600083830152505050565b60005b83811015610f7c578082015181840152602081019050610f61565b83811115610f8b576000848401525b50505050565b60006002820490506001821680610fa957607f821691505b60208210811415610fbd57610fbc610ff4565b5b50919050565b610fcc82611052565b810181811067ffffffffffffffff82111715610feb57610fea611023565b5b80604052505050565b7f4e487b7100000000000000000000000000000000000000000000000000000000600052602260045260246000fd5b7f4e487b7100000000000000000000000000000000000000000000000000000000600052604160045260246000fd5b6000601f19601f8301169050919050565b7f4f776e61626c653a206e6577206f776e657220697320746865207a65726f206160008201527f6464726573730000000000000000000000000000000000000000000000000000602082015250565b7f4f776e61626c653a2063616c6c6572206973206e6f7420746865206f776e6572600082015250565b7f596f75206d75737420706179202e303120657468657220746f20706f73740000600082015250565b61110d81610f13565b811461111857600080fd5b50565b61112481610f45565b811461112f57600080fd5b5056fea2646970667358221220a16e0b6ab3e39d4b162b9d164fa432c2fc3cb93467e606de94e91d4226b8085f64736f6c63430008040033",
  "linkReferences": {},
  "deployedLinkReferences": {}
}